{
  "contractName": "Calculator",
  "abi": [
    {
      "anonymous": false,
      "inputs": [
        {
          "indexed": false,
          "internalType": "string",
          "name": "msg",
          "type": "string"
        },
        {
          "indexed": false,
          "internalType": "uint256",
          "name": "value",
          "type": "uint256"
        }
      ],
      "name": "success",
      "type": "event"
    },
    {
      "constant": true,
      "inputs": [],
      "name": "result",
      "outputs": [
        {
          "internalType": "uint256",
          "name": "",
          "type": "uint256"
        }
      ],
      "payable": false,
      "stateMutability": "view",
      "type": "function"
    },
    {
      "constant": false,
      "inputs": [
        {
          "internalType": "uint256",
          "name": "num1",
          "type": "uint256"
        },
        {
          "internalType": "uint256",
          "name": "num2",
          "type": "uint256"
        }
      ],
      "name": "addNum",
      "outputs": [
        {
          "internalType": "uint256",
          "name": "",
          "type": "uint256"
        }
      ],
      "payable": false,
      "stateMutability": "nonpayable",
      "type": "function"
    },
    {
      "constant": false,
      "inputs": [
        {
          "internalType": "uint256",
          "name": "num1",
          "type": "uint256"
        },
        {
          "internalType": "uint256",
          "name": "num2",
          "type": "uint256"
        }
      ],
      "name": "subNum",
      "outputs": [
        {
          "internalType": "uint256",
          "name": "",
          "type": "uint256"
        }
      ],
      "payable": false,
      "stateMutability": "nonpayable",
      "type": "function"
    },
    {
      "constant": false,
      "inputs": [
        {
          "internalType": "uint256",
          "name": "num1",
          "type": "uint256"
        },
        {
          "internalType": "uint256",
          "name": "num2",
          "type": "uint256"
        }
      ],
      "name": "mulNum",
      "outputs": [
        {
          "internalType": "uint256",
          "name": "",
          "type": "uint256"
        }
      ],
      "payable": false,
      "stateMutability": "nonpayable",
      "type": "function"
    },
    {
      "constant": false,
      "inputs": [
        {
          "internalType": "uint256",
          "name": "num1",
          "type": "uint256"
        },
        {
          "internalType": "uint256",
          "name": "num2",
          "type": "uint256"
        }
      ],
      "name": "divNum",
      "outputs": [
        {
          "internalType": "uint256",
          "name": "",
          "type": "uint256"
        }
      ],
      "payable": false,
      "stateMutability": "nonpayable",
      "type": "function"
    }
  ],
  "bytecode": "0x608060405234801561001057600080fd5b5061040c806100206000396000f3fe608060405234801561001057600080fd5b50600436106100575760003560e01c8063653721471461005c5780636f827c3e1461007a5780637eaddeaa146100c6578063e4ada89c14610112578063fb596d071461015e575b600080fd5b6100646101aa565b6040518082815260200191505060405180910390f35b6100b06004803603604081101561009057600080fd5b8101908080359060200190929190803590602001909291905050506101b0565b6040518082815260200191505060405180910390f35b6100fc600480360360408110156100dc57600080fd5b810190808035906020019092919080359060200190929190505050610238565b6040518082815260200191505060405180910390f35b6101486004803603604081101561012857600080fd5b8101908080359060200190929190803590602001909291905050506102c7565b6040518082815260200191505060405180910390f35b6101946004803603604081101561017457600080fd5b81019080803590602001909291908035906020019092919050505061034f565b6040518082815260200191505060405180910390f35b60005481565b60008183036000819055507fcff9825eb5f7113a05f2008b9b155a73b43223f1acacaefe08ba9295a715a0326000546040518080602001838152602001828103825260108152602001807f5375627472616374696f6e20646f6e65000000000000000000000000000000008152506020019250505060405180910390a1600054905092915050565b600081838161024357fe5b046000819055507fcff9825eb5f7113a05f2008b9b155a73b43223f1acacaefe08ba9295a715a03260005460405180806020018381526020018281038252600d8152602001807f4469766973696f6e20646f6e65000000000000000000000000000000000000008152506020019250505060405180910390a1600054905092915050565b60008183016000819055507fcff9825eb5f7113a05f2008b9b155a73b43223f1acacaefe08ba9295a715a03260005460405180806020018381526020018281038252600d8152602001807f4164646974696f6e20646f6e65000000000000000000000000000000000000008152506020019250505060405180910390a1600054905092915050565b60008183026000819055507fcff9825eb5f7113a05f2008b9b155a73b43223f1acacaefe08ba9295a715a0326000546040518080602001838152602001828103825260138152602001807f4d756c7469706c69636174696f6e20646f6e65000000000000000000000000008152506020019250505060405180910390a160005490509291505056fea265627a7a72315820b0dfa0f724966cd0f4272c6d7e059f57abe1884bf1e59f33bb2c57ca273e187864736f6c63430005100032",
  "source": "// SPDX-License-Identifier: MIT\r\npragma solidity >=0.5.0 <0.9.0;\r\n\r\ncontract Calculator {\r\n\r\n    uint public result;\r\n    event success(string msg, uint value);\r\n\r\n    function addNum(uint num1, uint num2) public returns(uint){\r\n        result = num1 + num2;       \r\n        emit success(\"Addition done\", result);\r\n        return result;\r\n    }\r\n\r\n    function subNum(uint num1, uint num2) public returns(uint){\r\n        result = num1 - num2;    \r\n        emit success(\"Subtraction done\", result);\r\n        return result;\r\n    }\r\n\r\n    function mulNum(uint num1, uint num2) public returns(uint){\r\n        result = num1 * num2;    \r\n        emit success(\"Multiplication done\", result);\r\n        return result;\r\n    }\r\n\r\n    function divNum(uint num1, uint num2) public returns(uint){\r\n        result = num1 / num2;    \r\n        emit success(\"Division done\", result);\r\n        return result;\r\n    }\r\n}   ",
  "sourcePath": "D:\\DeskTop\\Dapp\\Calculator-final-dapp\\calculator-contracts\\contracts\\Calculator.sol",
  "compiler": {
    "name": "solc",
    "version": "0.5.16+commit.9c3226ce.Emscripten.clang"
  },
  "schemaVersion": "3.4.16",
  "updatedAt": "2024-01-03T10:34:32.835Z",
  "networkType": "ethereum",
  "devdoc": {
    "methods": {}
  },
  "userdoc": {
    "methods": {}
  }
}